:020000040020DA
:1000000002200D699000F51612000D747810EC4D69
:100010004E4F70047CA57DA5C3EC13FCED13FDEEE3
:1000200013FEEF13FF5010EC64CCFCED644CFDEEBE
:10003000644EFEEF64CEFFD8DF9000F51612000D7F
:10004000B5EE547FFE229000F516EEF0EFA3F0A37C
:1000500074A5F0A3F0220000000000001000800052
:1000600000805F9B34FB00000000000000000000E7
:100070000227637A000000000227A4C40227A88F89
:100080000223760F022677E82207FF2202222C7D28
:100090000221491B02244B83C0E0F5E0C0E0900040
:1000A000F576E06401700975E00215E070FC8024CB
:1000B0009000F576E06402700975E01415E070FCBC
:1000C00080129000F576E06403700975E03015E069
:1000D00070FC8000D0E0E5E0D0E02230303030002D
:1000E000000000000000000000000022022371A1B7
:1000F00000000000220000000000000000000000DE
:1001000000000000000000000000000000000000EF
:1001100000000000000000000000000000000000DF
:1001200000000000000000000000000000000000CF
:100130000000000000000000000000000000004D72
:10014000414749430227AB9EE09028FE00F1030996
:100150000000F3010AF40401000004F203090001A5
:10016000F3023506F40619110E19110FF2030900F6
:1001700004F3023510F41035061901000900173593
:1001800006190017090104F203090006F3023509F4
:10019000F40909656E09006A090100F20309000902
:1001A000F3023508F408350619110E090106F203A9
:1001B000090100F3022508F4084156524350204338
:1001C00054F203090102F3022504F4044D4348509C
:1001D000F203090311F30109F4020001FFE08D2885
:1001E000FE90F103090000F3010AF4040100000588
:1001F000F203090001F3023503F40319110CF203B1
:10020000090004F3023510F4103506190100090045
:10021000173506190017090104F203090006F30255
:100220003509F40909656E09006A090100F203093C
:100230000009F3023508F408350619110E09010604
:10024000F203090100F3022508F408415652435015
:10025000205447F203090102F3022504F4044D433C
:100260004850F203090311F30109F4020002FF50A0
:10027000DCE755E405D2AF9FA98FE54A7DFE4353E5
:10028000534942DB9F001053DC5018A200169624FD
:1002900047C62361BAD94B4D1E4353534942DCE351
:1002A000001350DB7016962447C62361BAD94B4D14
:1002B0001E4353534941DCE60042DB6E000142DC41
:1002C00063000042DCF7000253DBD40CA500B39BB3
:1002D0007234BEECD4A8F44341884353534942DC02
:1002E000E1001350DB5EB39B7234BEECD4A8F44340
:1002F00041884353534941DCE50042DB5C00015334
:10030000DB8C1CA7007E3B07FF1C51492FB3398AA9
:100310004C4353534942DBB0001350DC6F7E3B0724
:10032000FF1C51492FB3398A4C4353534941DBB227
:100330000042DC6D000142DBAB000042DBB3000297
:10034000605ADBF6F07EDCE7DB9F00100001F05E18
:10035000DC50DCE300130001DB70DCE6DB6E00F751
:100360000D10F05CDC63DCF700022111F05EDBD4E1
:10037000DCE100130001DB5EDCE5DB5C00F70D1067
:10038000F05EDB8CDBB000130001DC6FDBB2DC6DF8
:1003900000F70D10F05CDBABDBB30002211148DC91
:1003A000650000DBF600A000A841EE100044EE0A54
:1003B0000000000047EE1420434C43433A2041EE36
:1003C0001B8241EE11006042EE1CFF00FF010202A1
:1003D00003030404050506060707080809090A0AB5
:1003E0000B0B0C0C0D0D0E0E260F290F10101711F4
:1003F0001A121D1323142415FF16FF17FF18FF19D7
:10040000FF1AFF1BFF1CFF1DFF1EFF1F58C4AA0081
:10041000A3000100A8000100C5000100F3000100D5
:10042000F6000100F9000141ED640041ED8B00424E
:10043000F2E700F041F2E50041F2E40041F2DF00B2
:1004400041F2DE0041F2DD0042F14B000043F0BA20
:1004500000000043F23500000043F2380000004184
:10046000F2F40141D0D90041D0DC0141D211004168
:10047000D2120041D20D0041D0CD3341CBAC00426D
:10048000CBB2000042E0040A1842E018000245E046
:100490002902D200292A42E04D000542E13A292AE8
:1004A00044E0594D43485042E138000445E03702EA
:1004B000D400242A42E063000542E008242A44E0F4
:1004C00065424D383342E006000445E02402D60080
:1004D000252A42E04B000542E136252A44E055300A
:1004E00030303042E134000445E01F02D800272AB2
:1004F00042E03E000542E12A272A46E04F425442AC
:100500004D383342E128000645E01A02DA00262A77
:1005100042E03C000542E126262A46E045313030E3
:1005200030303342E124000645E03202DC00282A64
:1005300042E05D000542E002282A44E05F303030AE
:100540003042E000000445E04002DE00232A42E1A0
:1005500022000542E016232A48E12C00000000009A
:1005600000000042E014000845E11B02E0002A2AD6
:1005700042E00A000542E0302A2A48E00C00000070
:10058000000100000042E02E000860AAE069F07E51
:10059000E004E01800020001F05EE029E04D0005F3
:1005A0000001E13AE059E13800F70A01F05EE03776
:1005B000E06300050001E008E065E00600F70A01DD
:1005C000F05EE024E04B00050001E136E055E13447
:1005D00000F70A01F05EE01FE03E00050001E12A9D
:1005E000E04FE12800060001F05EE01AE03C000563
:1005F0000001E126E045E12400060001F05EE03262
:10060000E05D00050001E002E05FE00000F70A01A4
:10061000F05EE040E12200050001E016E12CE0146C
:1006200000080001F05EE11BE00A00050001E03077
:10063000E00CE02E0008000148E1130000E0690032
:10064000D000E050E3D5C2EA3379AFA9CD83244C82
:10065000E0874353534942E425001053E3FD1AF267
:100660000045106CF2B716219670445CB7435353A3
:100670004942E48D001350E39845106CF2B71621FF
:100680009670445CB74353534941E4A20042E48B63
:10069000025842E423000042E4A3000253E48F180E
:1006A000F5003F6A776644F021B57749B64B43536E
:1006B000534942E396001350E3C43F6A776644F01F
:1006C00021B57749B64B4353534941E3BB0042E35D
:1006D00094000142E4A5000042E3BC000253E3A8F9
:1006E0001AF800786D43F61088DE94A345D12D43A7
:1006F00053534942E3C2001350E413786D43F6109C
:1007000088DE94A345D12D4353534941E3D400429D
:10071000E3C0000142E3BE000042E3E50002606482
:10072000E427F07EE3D5E42500100001F05EE3FD50
:10073000E48D00130001E398E4A2E48B00F71F119D
:10074000F05CE423E4A300022111F05EE48FE39661
:1007500000130001E3C4E3BBE39400F70D10F05C69
:10076000E4A5E3BC00022110F05EE3A8E3C200139D
:100770000001E413E3D4E3C000F70D10F05CE3BE26
:10078000E3E50002211148E38C0000E42700F000BB
:10079000F950E789E4A581502997F0FC1A44D50463
:1007A0004353534942E7BC001053E80C02C20032E5
:1007B000A23EF5B468DFDB483927984353534942DA
:1007C000E786001350E7AC32A23EF5B468DFDB48A1
:1007D0003927984353534941E7880042E7AA00016B
:1007E00053E81F18C400EDFDAD23D3EEDAE5276C06
:1007F000E3954353534942E799001350E7C0EDFD99
:10080000AD23D3EEDAE5276CE3954353534941E733
:100810009B0042E7BE000142E83A000042E79C002C
:1008200002603CE7D0F07EE789E7BC00100001F0F1
:100830005EE80CE78600130001E7ACE788E7AA0052
:10084000F70E01F05EE81FE79900130001E7C0E72B
:100850009BE7BE00F70D10F05CE83AE79C00022130
:100860001148E8320000E7D000C000C541F576002D
:1008700042F030000041F0320041E8F10041DA96E8
:10088000006030DA99A8C38BA8C341A8C37BA8C372
:100890002DA8C368A8C316A8C352A8C2FCA8C2EF5B
:1008A000A8C2A5A8C2DFA8C291A8C2CCA8C27AA833
:1008B000C2B6A8C26041D9960041D9970041D998E3
:1008C0000041D9990141D99A0041D99B0041EE5E7E
:1008D0000044EE5F0000000042F072001842F06E2B
:1008E000011842F07E002842F080012842F06A029E
:1008F0002842F05E032842F07C002942F06801297A
:1009000042F05C022942F062032942F0600429426D
:10091000F05A052942F076002A42F064012A42F09A
:100920006C042A42F074052A42F066A62A42F0823C
:10093000C92A42F070292B42F07A2A2B42F0783AE9
:100940002B50F1D10000000000000000000000006A
:100950000000008742E383000245E2810A030000B1
:100960002A42E33100056020E33B42543535313102
:100970005F53444B00000000000000000000000036
:100980000000000000000000000042E374000A457F
:10099000E365020500012A42E37F000542E381008E
:1009A0000042E27F000245E2B4020700042A42E36B
:1009B0005B000548E35D0800000A02010D0042E308
:1009C0007D000845E36F020900A62A42E38A00057C
:1009D00041E26F0042E28A000145E36A020B00C96E
:1009E0002A42E387000541E3890042E28800016072
:1009F0006EE2B9F07EF072E38300020001F05EE285
:100A000081E33100050001F076E33BE37400201B35
:100A100011F05EE365E37F00050001F064E381E22D
:100A20007F00020001F05EE2B4E35B00050001F02C
:100A30006CE35DE37D00080001F05EE36FE38A0094
:100A4000050001F066E26FE28A00010001F05EE35A
:100A50006AE38700050001F082E389E28800010073
:100A60000148E3330000E2B90001000B42E37B00E0
:100A70000245E376201200052A42E270000544E2B6
:100A8000720100FFFF42E327000442E385000042B9
:100A9000E28600026028E28CF07EF06EE37B0002CA
:100AA0000001F05EE376E27000050001F074E2728E
:100AB000E32700040000F05CE385E28600022011D9
:100AC00048E3290000E28C0010001341F3280043A2
:100AD000F32D00010341F3250041F3260041F327E4
:100AE0000041F0F30050EA1B666DD038E26F4AA473
:100AF00083CCD0C94343534942E9A6001053E9AB24
:100B00001832001803A6285ED8EC911C48A3AC4309
:100B100053534942EA16001350EA401803A6285ED0
:100B2000D8EC911C48A3AC4353534941EA18004206
:100B3000EA3E000142EA0C000042EA19000253EAD0
:100B40002B0435004F84F610761AD4BD4941E418C1
:100B50004353534942E9A8001350E9FC4F84F6106F
:100B6000761AD4BD4941E4184353534941E9AA00D8
:100B700042E9FA0001603CE9BEF07EEA1BE9A6000A
:100B8000100001F05EE9ABEA1600130001EA40EA4A
:100B900018EA3E00F70D10F05CEA0CEA1900022199
:100BA00011F05EEA2BE9A800130001E9FCE9AAE9CB
:100BB000FA00F70D1048EA0E0000E9BE00300035DB
:100BC00044E241003300010041F58200C2D530F714
:100BD00007B2D563F0FF05F030E70DB2D5F404009D
:100BE0008463F0FF05F080018430D502F40422BC58
:100BF000000BBE0029EF8DF084FFADF022E4CCF8AD
:100C000075F008EF2FFFEE33FEEC33FCEE9DEC9811
:100C10004005FCEE9DFE0FD5F0E9E4CEFD22EDF897
:100C2000F5F0EE008420D21CFEADF075F008EF2F39
:100C3000FFED33FD4007985006D5F0F222C398FD32
:100C40000FD5F0EA22C2D5EC30E709B2D5E4C39D56
:100C5000FDE49CFCEE30E716B2D5E4C39FFFE49EB2
:100C6000FE12200BEFC3E49DFDE49CFC80041220E7
:100C70000BEF30D507C3E49FFFE49EFE22F8EB7034
:100C80000C09E5F027C7F5F019E837C72289828AF1
:100C9000831410E707F593E802000B1FF593E47443
:100CA0000193F5F0E49322BB000B09C5F027F7C5CB
:100CB000F01937F722F8EB89828A831410E707F5D9
:100CC00093E802000B09F59374019325F0F5F0E425
:100CD000933822EB7006E9F802200D0D89828A8391
:100CE0001410E706F59302000D9CF59302200D1AEF
:100CF000EB7006E9F802200D2A89828A831410E736
:100D000006F59302000DD9F59302200D33E6FB089A
:100D1000E6F908E6FA08E6CBF822E493F8740193C2
:100D2000F9740293FA740393FB22E6FB08E6FA08CF
:100D3000E6F922E493FB740193FA740293F9220218
:100D4000278359E493A3F85407240CC8C333C4542D
:100D50000F4420C8834004F456800146F6DFE48047
:100D60000C010204081020408090200148E47E011C
:100D70009360CCA3FF543F30E509541FFEE493A3D6
:100D800060010ECF54E0B4E029E493FBA3E493FAAE
:100D9000A3E493F9A3E493C083C08212000AE3752D
:100DA0009320D082D083A309E970010ADFE7DEE552
:100DB00080BB54C025E0602B4089E493A3FAE49300
:100DC000A3F8E493A3C8C582C8CAC583CA759300B3
:100DD000F0759320A3C8C582C8CAC583CADFE3DE05
:100DE000E1808AE493A3F8E493A34003F68001F240
:100DF00008DFF402200D6DA876C70004D104A88F87
:100E0000550001B701A8713F00019E47A8989900BD
:100E1000019E69A898B000019EBAA8716600019E63
:100E2000D1A8676F0001587DA8718D0002BA8CA708
:100E3000DDE50003D495A873C8000140AEA791CCAE
:100E400000032D73A824600003EBF7A6B07D000417
:100E50007A35A8A2FB000324C2A88F710000100FEE
:100E6000A8A30C000396B6A8A31D00039797A89506
:100E700045000486D1A8A06700044D67A840C500BE
:100E800001B5AAA8302900017A0AA8074D0003611C
:100E900014A8A5F500008D66A7870B000288E1A8BD
:100EA00056F10003B920A81206000151A2A86DDC7A
:100EB0000004E099A73E5F00026772A6CF10000110
:100EC000BE52A7ED8E000320A2A89EC20002CB0155
:100ED000A7FD3600010E513F65098601000A000496
:100EE000781D35330D0D1305447F502440503000DC
:100EF0000220404014080016200A1016201E0F0F72
:100F00005555160A540B0412000010120700000376
:100F100019FF40F07F40000077015E00F001E00023
:100F2000C8204E000048393024201812600000000C
:100F300000000000000000535050424D38335F4D18
:100F400053504B3230000000000000000000000051
:100F5000000000000000000000000000000000226F
:100F60002222222222222222222222222222220083
:100F70000000000000000000000000000000000071
:100F8000000000000000000000000000000000421F
:100F90004D38335F4D53504B323000000000C103D9
:100FA00000000020011001130114C1010000000025
:100FB0000000000000000000424C455F424D383305
:100FC00053444B0000500048000001F406FF022784
:100FD00005010300000D0A0D0A2A2B9000C654EAF1
:100FE000F0A3EBF0A3EDF0EF70199000C657740179
:100FF000F0E4A3F0A3F09000C65EF07EC67F571227
:1010000023F1C12202252C0C022663F49000EADFB2
:1010100002000DF902279C610227442F022635F9B0
:101020000225F6770226C817022698E60224F23532
:101030000221089202223D77022765E302258B24D4
:10104000022400000223C2000226DBE10221C16863
:101050000226E13802239CCB02266DCE02272565AD
:101060000226A30002274EBD02267C6C022762994D
:1010700002264607022601340226702002269741E6
:1010800002258A5A0225708F02276A480224BD5D14
:10109000E49000C519F09000C515F0A3F0A3F090FE
:1010A00000DB54E06401601012234A59701EA290C4
:1010B0004003D38001C340149000D4A6E07002A383
:1010C000E06006E4FF12229A927FFF22122349E198
:1010D000C39000D4BC7005E094108003E09411FF2D
:1010E0009000D4BBE09400FE9000D4DCE0FDC3EFA0
:1010F0009DFFEE94009000C513F0A3EFF090006206
:101100004EE0FF64067003011EB5EF640C7003012E
:101110001EB59000C513E07002A3E07003011EB578
:101120009000DA50E0600764016003011EB51227E9
:101130008C97EF6003011EB59000D4931223495998
:10114000240C122348FFE0FEA3E0122349331223AC
:1011500048FFE06003011EAA9000D4DDE020E00318
:101160000111ED9000E970E060030111ED12234AD6
:10117000599000C51C70057409F080037412F012B8
:10118000201F3BEFF09000C51D1223492E1223486B
:10119000FFE4F0A37499F09000C51C1223494BE5BD
:1011A000822407122348FFEDF09000C51D12234A48
:1011B000D42408122348FF740DF09000D4D01223D9
:1011C000494BE5822409122348FFEDF09000C51D2C
:1011D00012234969240A122348FFE4F07F07120012
:1011E0000451E49000D9AEF09000DA32F09000D4CF
:1011F000D1E060030113561223490A7AC57B1A7D98
:101200001012201F609000D4CBE0700301135390A4
:1012100000C51AE0649C60030113539000C51604D6
:10122000F01223490A7AC57B1A7D117C0012201F17
:10123000007AC57B1B7D1212201F609000C51AE04A
:10124000FF9000D9AEE06F602212234A9E70079093
:1012500000C516F080299000D9AEEFF09000C51BB4
:10126000E09000D4E912234A7E80149000C51BE070
:10127000FF9000D4E9E06F6006EFF01224E0519097
:1012800000C516E0640160030113D4A3E06003010C
:1012900013D49000C51C12234AA69000C51CF0125E
:1012A000234A3AC39F400301133DE4A3F09000C5D5
:1012B0001DE0FD12234AB650631223490A9000C56F
:1012C0001FE02410FB9000C51EE03400FA7C00EB08
:1012D0002DFDEC3A12201EE29000D52AE02410FDEC
:1012E000E433FC9000C51FE02DFD9000C51EE03CDE
:1012F000FC9000C51DE07A002DFDEA3CFC7AC57B20
:101300001B122765B79000C51BE0FF9000C51AE0CF
:10131000B507099000C51DE004F080919000C51D3F
:10132000E0640370189000D52AE0FF9000C51E12FB
:10133000234A6A9000C51CE004F001129F12234A60
:101340003A6F70030113D4E49000C516F09000C505
:101350001980297FFF22122349E170259000C516CC
:1013600004122349EE701112234A9E70079000C5A3
:1013700016F0800412234A7F9000D9AE74FFF080EB
:10138000539000D4CBE0604C1223490A7AC57B1CF1
:101390007D117C00122765B79000C51CE054F8F061
:1013A0009000C5167401122349EE54F812234A42E4
:1013B000FEB507089000D4DDE030E01812234A9E05
:1013C00070079000C516F0800BEE44079000D9AE70
:1013D00012234A7E9000C516E07003011EB5A3E0FB
:1013E00060601200048A1223491F122348FFE4F0B0
:1013F000A3740B122349EEFB122348F4EBF07F0891
:10140000120004519000D4DDE054FEF0E4FF1222FB
:101410009A929000625CE06076122349CC6005EFFE
:101420006409706BE49000DB50F01200048A122310
:1014300048D4741EF09000C51CE0FCA3E0FD7F07BB
:1014400080499000624EE0FF640D6043EF640460E9
:101450003EEF640360399000DA4AE0640460309043
:1014600000624EE0640A6027EF640C602212000400
:101470008A1223491F122348FFE4F0A3740B12239E
:1014800049EEFB122348F4EBF07F08120004519060
:1014900000C513E0FEA3E09000D49312234A2CA3CE
:1014A000A312234981A3A3E475F01012000B099045
:1014B00000F55EE09000C515F06003011CC4122326
:1014C00049E170089000C51804F0800C9000D4CB5E
:1014D000E0540F9000C518F09000E95AE0605912EE
:1014E0002349CC6005EF6409704E9000D4C21223EA
:1014F00049632409122348FFEFF09000D4B8E0FFBD
:1015000012234986E5822408122348FFEFF0900059
:10151000D4AAE0540F6401700A9000D4B5E09000A2
:10152000D495F012234986E5822409122348FFE06E
:101530009000E984F0011815E49000C51DF09000BA
:10154000D4F2E004F0122349632409122348FF1265
:101550002349AE9000D4FAE02FF09000D4C5E0FB10
:10156000A3E09000C51ECBF0A3EBF09000D48FE079
:10157000F4607EE004F09000D492E0FEEFC39E4061
:101580000C9000C518E09000D492F0801E9000D41A
:10159000A8E0FF9000C518E0FEC39F40089000D46B
:1015A000A8EEF080069000D490EEF09000D48FE08A
:1015B0006414703D74FFF09000D4A8E0700A9000AD
:1015C000D492E09000D4A8F09000D490E0700A90FB
:1015D00000D4A8E09000D490F09000D4A8E0FF9050
:1015E00000D492E02FFF9000D490E02F9000D4958B
:1015F000F09000C51EE0FFA3E09000D4F71223494D
:10160000AB9000D500E4F0A3EFF09000D4FAE0FF37
:1016100012234986E5822408122348FFEFF0900048
:10162000C51C7408F09000612AE0700301175A90FD
:1016300000D4CBE09000C520122349E07030900028
:10164000D4FBE0C39405FFE49400FEC39000D4995A
:10165000E09F9000D498E09E500D12234AAE700790
:1016600012234A24011716122349F50117161223D3
:101670004B107E00C312234A874022122349F59063
:1016800000D213E004F0E0D312234A87500301177D
:1016900016122349F5E49000D213F08079EF640725
:1016A0004E701F122349F59000D4A2E004F0E0D35D
:1016B00012234AB74060122349F5E49000D4A2F007
:1016C000805412234B107E0064067021122349F5CA
:1016D0009000D4A3E004F0E0D3940474809480409C
:1016E0003512234A24E49000D4A3F08029D3EF9448
:1016F00005EE64809480501E12234A249000D4A5E5
:10170000E004F0E0940674809480400A12234A2496
:10171000E49000D4A5F09000D4F5E0C39432748036
:101720009480500C12234AAE700612234A24802063
:101730009000D4A9E060199000C520E012234AB6B9
:10174000400E9000D4A9E014F09000C51CE014F005
:101750009000D4CBE09000D4F6F0122349B7A3E078
:10176000FD8F82122349142DFDED30E0149000C549
:1017700014E0240F12201EBC9000C514E0240E803B
:10178000161223490A9000C514E0240E12201EBC34
:101790009000C514E0240DFD9000C513E012201F39
:1017A000479000C518E0FB9000D4F2E0FE2BFD90BE
:1017B00000C51AE02DFDA3E02D540FFDC2AF90002F
:1017C000E977E054F04401F09000D495E09000E90E
:1017D00082F09000E984EEF09000D4FAE09000E905
:1017E00085F0EB540FFFA3E054F04FF0AF05EF543A
:1017F0000FC454F0FFE0540F4FF09000DB58A3E00B
:101800009000E981F01223490A7CE97D777B101270
:10181000001210D2AF12234A596003011A3B900004
:10182000C518E025E02402FF9000C520F07E00D31B
:101830009410748094805057EF9404748094805076
:10184000061200048A802A9000C520E0D312234AA1
:101850008750061200049D80189000C520E0D394A4
:1018600010748094805006120004B080041204EFBB
:1018700080EE12234AEBEFF09000C5181223494B7B
:10188000E5822408122348FFEDF0EF24098071124D
:10189000201F3BEFF012234B10C39401FDED541FAA
:1018A000D39400E49400400AEF9401C41354070455
:1018B000800C9000C520E0C39401C4135407FF12AC
:1018C00004875F9000C51D1223496924081223482C
:1018D000FFEE122349AC12234986E5822408122325
:1018E00048FFE0FCA3E012234A32EFF09000C51D50
:1018F000122349592408122348FFE0FEA3E02401E3
:10190000FFE43E9000C525F0A3EFF09000C51D1246
:1019100023492E122348FFE4F0A37429F09000C558
:1019200020E0C394011223494CE582240712234886
:10193000FFEDF09000C517E09000C51D600C12236C
:101940004959122348FDE4F0800B12234959122310
:1019500048FD7401F0E49000C51FF0122349B090D7
:1019600000C51FE0FEC39F4003011A2FEE700A90CE
:1019700000C523F0A304F0806B1223490A12234907
:101980008E12201EE21223498ECD2401CD12201F7B
:10199000479000C51AE0FEA3E0FDEDFF9000C521D1
:1019A000EEF0A3EFF09000C521E0FEA3E07802CEB8
:1019B000C313CE13D8F9FFEE5401FEEF2401FFE468
:1019C0003EFE9000C521F0A3EFF09000C524E02476
:1019D0000112234995CD2FFFED3ECF2402CF3400D5
:1019E000F0A3EFF09000C51FE025E0A3F0FB122369
:1019F000490A1223498EFC7A0012234ADFEA38FA98
:101A000012201F001223498ECD2401CD3400FC90FA
:101A100000C520E02401FBE433FA12234ADFE83A50
:101A2000FA122765B79000C51FE004F001195B901A
:101A300000C51D12234A8E12000451122349B7A378
:101A4000E0FD8F82122349142DFDED30E026900039
:101A5000D4931223493BE5822DF582E5833CF5833F
:101A6000759300E412234A60122349C0E475F00123
:101A700012000B09122349CA6008EF6409600301D0
:101A80001BC99000625CE07003011BC99000E93B38
:101A9000E0FF7003011BC99000C51CE0FE12234942
:101AA00065122348FDEE12234985E582240712239F
:101AB00048FFEFF09000644C7401F0122349551276
:101AC0002348FDE0700412234AFC122349552409DF
:101AD000122348FFE0FF12234986E58224091223DE
:101AE00048FFE0FED39F4004EE9F80231223495518
:101AF0002409122348FFE0F404FF9000D493E0FC93
:101B0000A3E08C837593002409122348FFE02F047F
:101B100090006F51F09000F03BE0FD600C12234903
:101B2000B09000D50412234A6A9000D4FBE025E06F
:101B3000FEE43312234AEBCE122349E070109000EA
:101B4000DB50E0601712234AEA740FF0800E900019
:101B5000DB50E0600712234AEA7464F0ED606A909B
:101B600000D493122349592409122348FFE0FF604F
:101B7000589000C51DE0FCA3E0FDC39000D505E032
:101B80009D9000D504E09C40409000D4CFEFF0122F
:101B900000048A9000C51F122348D8741F12201F0A
:101BA00019E49000D504F0A3F09000DB50E0601938
:101BB00014F0E0640670121200048A9000C51F122F
:101BC0002348D8740B12201F199000E8EFE0FF7E25
:101BD0000064036005EF64097008E49000DB23F003
:101BE000800AEF4E70069000DB2304F09000D4933F
:101BF0001223492E122348FF7401F09000C51812D9
:101C000023494BE5822405122348FFED12234A6045
:101C1000122349C0E0FEA3E0FF9000D4A6EE1223F9
:101C20004A6B9000D4A6E0FEA3E0FF7DB17C0012D9
:101C30000011589000D4F5EF12234A60FFF5828E10
:101C4000831223494312234B1712234965240C1294
:101C50002348FFE0FAA3E0F5828A837593001223FC
:101C60004981E582240C122348FFE0FFA3E09000A5
:101C7000D493122349AB9000D49812234A6A90005F
:101C8000DFAE12000D74E4FFED5402FDE4FCED60E4
:101C90002F12234A5960299000D4D0E0602290008E
:101CA000E95AE0701B12234AAE700F9000624EE0BA
:101CB000640D7006122327128006E49000D506F00A
:101CC000D2AF805112201F53122349CC6005EF641C
:101CD00009703F9000625CE060261200048A900068
:101CE000C51CEEF0A3EFF012234933122348FFE4A2
:101CF000F0A37494122348F3740C12201F2A80124C
:101D00009000612AE0600B9000683BE060041227BD
:101D10006ECD7FFF229000D4F9E06003011E72C2F5
:101D2000AF9000D49104F09000D214E00412234943
:101D3000AF9000D48DE02FF0D2AF9000D48B12235F
:101D40004AD4240C122348FF1223493BA3A3122395
:101D50004B177DB17C00120011589000D4FEEFF0BB
:101D60009000624EE0640D6011C2AF9000625AE4D0
:101D7000F0A374C8F0D2AF011E6A9000D4D1E0FF86
:101D80007E00F4700F9000D4FBE0FD9000D48DE055
:101D9000C39D5028EFF44E7003011E3F9000D214F3
:101DA000E0C394167480948050129000D4FBE0FF3E
:101DB0009000D48DE0C39F5003011E3F122349CCF5
:101DC0006005EF640970449000DB50E0600790000C
:101DD000E95AE070369000625CE060101200048AFC
:101DE000122348D4740112201F2A80079000E95A58
:101DF000E06077C2AF9000625A740CF0A37480F078
:101E0000D2AF9000D4F97401F0805FC2AFE49000CB
:101E1000625AF0A3F0D2AF9000DB50E0600E900069
:101E2000E95AE060079000DB507402F09000D4F5AE
:101E3000E09000D49DF09000D4F97402F0802B1251
:101E40002349CA6005EF640970149000612AE0908C
:101E500000625A600D7401F0A3742CF0800A9000A7
:101E6000625AE4F0A374C8F0D2AFE49000D491F0C9
:101E700080439000D4F9E0FF7E006401701AC2AF85
:101E80009000D214E004F09000C518E0FD9000D45A
:101E90008DE02DF0D2AF801DEF64024E70179000E0
:101EA000D48DF09000D214F0800B12201F539000BC
:101EB000C51974FFF09000C519E0FF22FD9000C520
:101EC00013E03400FC7AC57B1A122765B79000D462
:101ED00093E0FEA3E0F5828E83759300E0FEA3E01D
:101EE000FF22FC7AC57B1A122765B79000D493E0D5
:101EF000FEA3E0F5828E83759300E0FEA3E0FF224F
:101F0000122765B79000D493E0FEA3E0F5828E839C
:101F1000759300E0FEA3E0FF22F09000C51FE0FCF7
:101F2000A3E0FD7F071200045122F09000C51CE0E1
:101F3000FCA3E0FD7F0712000451221200048A90E6
:101F400000C51DEEF0A3223400FC7AC57B1B1227CE
:101F500065B722E4FF12229A92E49000D9AEF022F3
:101F60007C00122765B7221222673C12000E681F00
:101F70008B181F94201FCB401FD4481FA8501FB39D
:101F8000581F9D701FBE7800001FDD122266F67478
:101F900011F0804C122266F67436F08043740212FF
:101FA0002266F774A7F0803874011222691A746FE0
:101FB000F0802D74021222691A7428F08022900099
:101FC000C4EF7403F0A374FDF08015122266F6745A
:101FD00053F0800C122266F6741DF080037F0022FD
:101FE000122266CACEC313CE13D8F9FFC39000C421
:101FF000F0E09F9000C4EFE09E7F0050027F01223E
:10200000227F0122229000C7CD12258C8A9000C722
:10201000CCEFF004FF9000C7D2F07E001204CF4C4A
:102020009000C7D3EEF0A3EFF01200048A9000C72F
:10203000D0EEF0A3EFF08E8375930012258BF7E4BA
:10204000F0742212258C26240612258BF9E4F090D8
:1020500000C7CFE014601914601F14602514602BB2
:102060001460312405703412258C167413F0802B03
:1020700012258C167412F0802212258C167415F01D
:10208000801912258C167414F0801012258C167489
:1020900017F0800712258C167416F09000C7CCE05C
:1020A000FB601D9000C7D4E02401FF9000C7D3E07F
:1020B0003400FE9000C7CDE0FCA3E0FD120012103A
:1020C0009000C7D2E0FF9000C7D0E0FCA3E0FD8CF9
:1020D00083759300240712258BF9EFF09000C7D386
:1020E000E0FEA3E0FF12258C3FE582240812258B39
:1020F000F9EEF0A3EFF07F0812000451E4FEFF2296
:102100000226B9600227AA5E020404FD020407F554
:102110000227A632022778030227A8660224E4D405
:102120000225BAB202264688022475769000C53789
:10213000EFF0C37480948040061226A3EF40057E22
:10214000007F03229000C537E0FF1226A3E7501B53
:102150001226A4101226A3DC55801226A421FEF814
:10216000EF088002C313D8FC0121F09000C537129C
:1021700026A3E34021D3EF1226A3FD50191226A374
:10218000CC55901226A421C39408FEF8EF088002D3
:10219000C313D8FC805A9000C5371226A3F84025F7
:1021A000D3EF1226A409501DE0C394101226A3D029
:1021B00055A01226A421C39410FEF8EF088002C394
:1021C00013D8FC802B9000C5371226A40440291296
:1021D00026A3EF5023E0C394181226A3D055B012C3
:1021E00026A421C39418FEF8EF088002C313D8FC7C
:1021F0008D828C83759300F0E4FEFF2201030506B7
:102200000E12010A4254353531315F303032030449
:10221000010200039000C868EEF0A3EFF07EC87FD3
:102220006A7B06E4FD1200004F1222793BFD122268
:102230007874E0FEA3E08EF012000E9023140001EB
:1022400027B500022D5B00032BA000042C600005C5
:102250002CA70006364F00072CAB00082CF3000912
:102260002D12000A2DEF10012DFB10022E46100337
:102270002E5710042F541005364F10072EC110088A
:102280002E6B100A2DEB100B364F100C364F100D25
:10229000364F100F364F1015364F10162F96101D53
:1022A0002FC2101E2FE5200130923001364F300230
:1022B00030B93003364F3004311030053174300CF2
:1022C00031DC300D3254300E32F4300F3313301015
:1022D00033133011331330123313301333133014DC
:1022E00033133015331330163313301733133018BC
:1022F000331330193313301A3313301B3313301C9C
:102300003313301D3313301E35E14001364F400288
:10231000000036161222787D12227ACB2404122273
:102320007839122278FDE5822405122278391222AA
:102330007B6612227891A3A3E0FF9000C887F01279
:10234000227891A3A3A3E09000C888F0122039D18D
:102350001226F14D9000C886EFF09000C870E06042
:10236000046401703C9000C871E06402702374053D
:10237000122278A312227A6812227B6D1225F5D8D8
:1023800012227AE59000C87460030124DFF0012472
:10239000F59000C871E060030124F5A374070124DF
:1023A000419000C870E0FC64027065A3E0640270B4
:1023B0002A740612227AA1FD540FFF9000C873E020
:1023C00054F04FFF122278B7FEEF540F12227B74A5
:1023D000AF05AD041225F5D80124F59000C871E0D1
:1023E00060030124F5740812227AA19000C873F0EA
:1023F00012278C40EF60030124F51222789C1222F0
:1024000079FF7410F0E4FB7D0D122753C00124F511
:1024100012227AD264037030A3E0FD7C0064027063
:1024200013A3740B12227AA2122278ABFBEE540F84
:102430004B0124F0ED4C60030124F59000C8727448
:102440000C12227AA20124F0EF6404705B9000C8A1
:1024500071E0FB7A006402702C740D122278A312D2
:10246000227A68EF5403FFA312227969FFF09000EB
:10247000C888E09000C874122279D7A37402F0A330
:102480007411F0805AEB4A706C12227956FFF0906A
:1024900000C888E0540733333354F8FEEF54C712B2
:1024A000227B74543FF0804D9000C870E06405704A
:1024B00044A3E0FB7A006402702AA374101222780D
:1024C000A412227A68EF5403FFA312227969122220
:1024D0007A3A9000C874F0A37402F0A37411F074F7
:1024E00001F08011EB4A700D1222795612227A3ACD
:1024F0009000C873F012227A3364026003EF7030E8
:102500009000C870E0640660277EC87F7212229D2A
:10251000E71222789CE4FB7D2112276DB31222780A
:102520009C122279FF74A0F0E4FB7D21122753C096
:102530009000C871E0640260030126F39000C88D2A
:10254000F0A3F07F0912265308122503319000C82A
:102550008D12227922602C9000C887E075F010A4BB
:10256000FFAEF012227B6DEF4DFF9000C88FEEF0B2
:10257000A3EFF0FD1222789CAB05122279777D162D
:10258000013612122654827EC87F6A12227B6D7B2E
:10259000011223383612227A597CC87D6A9000C80D
:1025A00070E0FB9000C8B17401F01222BB179000DC
:1025B000C870E06007640160030126739000C47274
:1025C000E0540760111222789C12227A7C7402F087
:1025D0007D081227453D7D017F0512254B0C7EC8E5
:1025E0007F8A1227607D9000C88AE030E5151222AC
:1025F0007A591226D77FEF6402700812227A591294
:1026000026AF229000C88AE030E31D12227A597C5E
:10261000C87D8F1227320A9000C88FA3E030E108EE
:1026200012227A5912274D2D12227A597D01122633
:10263000F7269000C870E0600301364F7EC87F8B9C
:10264000122760AA7EC87F8C122761049000C88B75
:10265000E020E50301364FA3E020E30912227B29A5
:10266000700301364F9000C887122279297D01023C
:1026700023F56412227A8A702B7EC87F8912276420
:10268000AF9000C889E030E7067F021226D25A7D5B
:10269000017F0612254B0C12278C40EF7003013688
:1026A0004F0131D49000C870E06403701B9000C4E7
:1026B00072E020E40301364F1222789C12227A7CC9
:1026C00004F07D090227453D12227AD26404600895
:1026D000EF6405600301364F9000C870E064047039
:1026E0000812227B7B02270F877EC87F6A7D10023B
:1026F00026CA999000C871E0600301364F12227A11
:102700008A706D12227A599000C45BE06F7051900C
:1027100000C46EE0704A9000C45AE0FF6405604057
:10272000EF603DE4FD7F011224A3639000C889128D
:10273000227922602B7EC87F8B122738FB9000C83D
:102740008BE0FF131313540170161227A93DEF6499
:1027500001700D1227A952EF70067F01122799A46C
:102760007F02122039F2600301364FFD7F0680415F
:1027700012227AD264046005EF6405700812227B8D
:102780007B0226EE7F9000C870E060076401600362
:1027900001364F12203985FF122039F260030136CD
:1027A0004F7F011226A168EF4E600301364FFD7F77
:1027B0000502254B0C1222787D12227ACB240C12B2
:1027C000227839122278FDE5822408122278391203
:1027D000227B669000C868A3E08E8375930024096D
:1027E00012227839E06401600301364F9000C88CF2
:1027F0007408F09000C89512227B5812227A8A60E1
:10280000030129D912227A511226F14D9000C8876E
:10281000EFF012227A331227902F9000C886EFF043
:1028200064046059E025E025E0245FF582E434C4C7
:1028300012227B5F640370459000C899F0A3740274
:10284000F09000C871E0540FFF9000C89BE054F076
:102850004FFFF09000C887122278BCFEEF540F4E55
:102860009000C89BF078AD7CC87D017B017AC87967
:10287000997E007F0312000A331226AB469000C8EF
:1028800087E0640860657EC87F8C7CC87D8D1227D8
:1028900083B49000C887E0248DF582E434C8122206
:1028A0007B5FFF540F9000C88AF0EF54F0C4540FC0
:1028B0009000C889F0A3E0FF12279DE69000C88B26
:1028C000EFF01227A97CEF7EC87F8870061227845C
:1028D0000E800412275FC912227A337CC87D8812C9
:1028E000265ADA12227B7B1226D72812227A33123A
:1028F00027580C9000C46EE0700C9000C871E0FD89
:102900007F041224A3639000C8727415F09000C86D
:1029100071E09000C873122039A51222787D12222E
:102920007A52E4FB7D07122338361222787D122278
:102930007ACB240F12227839E0701B9000C899F0EE
:1029400012227A517CC87D99122726A99000C89935
:10295000E030E73E80381222787D12227ACB240FB5
:1029600012227839E0541F6401702712227903E59E
:1029700082241012227839E05440644060149000A0
:10298000C868A3E012227A527D801226CA991222C8
:1029900079E87EC87F98122764DB9000C898E03001
:1029A000E404122279E87EC87F9712279E0E9000D9
:1029B000C897122279398C83759300240A122278E1
:1029C00039E0FCA3E0FD9000C895E0FAA3E0FB121B
:1029D000269CF9E4FF02278EAD9000C870E06003EA
:1029E000012B699000C87274111222787C8E837555
:1029F0009300240D12227839E0640870079000C813
:102A00007304801012227A3312275EE8EF6009E423
:102A10009000C873122039A51222789C1222793BAB
:102A20008C83759300240812227839E0FB7D1D12F7
:102A30002773561220398512277438EF703C9000A6
:102A4000C45AE06405702D1222787D12227A521247
:102A50002039E7FB1222789C122039F91222789C47
:102A60009000C8991220399C1222789C9000C8715D
:102A7000122039DE7F0C122653081222787D8E83B5
:102A8000759300240D12227839E012000E682B6530
:102A9000022AAD042B06052AB8082AAD102AAD1F5C
:102AA0002AAD222AAD232AAD2A00002B4012227A19
:102AB0003312273C21012B659000C899E4F0A30450
:102AC000F07EC87F99122703C99000C899E0FAA345
:102AD000E0FB4A9000C8716010122279392402FD8F
:102AE000E43CFC1224EA708008E0FDE4FF1226CBEF
:102AF000AA9000C45AE0606D640260699000C48CC2
:102B000012203993805F1222787D12227A5212208D
:102B100039E79000C45CE0F4604B9000C899E0FB9A
:102B2000640860411222789C122039F91222789CA4
:102B30009000C899122279757D0612264E108025C4
:102B400012227A3312269F679000C45AE0600C6408
:102B50000260089000C48B122039931225FF017F78
:102B60000B1226530802243F3412227AE560030137
:102B7000364F9000C45AE0640360209000C89974F6
:102B8000171222787C12227AED12227839E0900016
:102B9000C89AF07EC87F9912229DE77F0E012D57BB
:102BA00012227849A3A3A31222784DE060030136D4
:102BB0004F9000C874F0A3F0A3F09000C874F09098
:102BC00000C874E0FFC3942074809480502E1222B9
:102BD000786C122279CF8C837593002407122278A7
:102BE00039E58212227838E070099000C874E00458
:102BF000F080099000C874E004F080C39000C874AD
:102C0000E0FF2402FCE433A3F0A3CCF01222786CA2
:102C1000A3A312227B82E4A3F0FE122565BA9000E2
:102C2000C87212227922700301364F9000C872E0F8
:102C3000FEA3E0FF1222786C122279CF2407FDE474
:102C40003CFC122039AF9000C875E0FEA3E0FF7B8A
:102C5000017AC8797012245BDD9000C8720135D802
:102C60001222787DFF12227851A3A3A3122278FDAD
:102C7000A3A312227B66701212227AD2640160052D
:102C8000EF640370057F04012D579000C871E06068
:102C90000301364F9000C870E060076402600301D2
:102CA000364F7F05012D5702253D9678707CC87DF3
:102CB000017BA17A0079DB7E007F1012000A33903D
:102CC00000C8807404F07EC87F807CC87D701227A5
:102CD0008D251222787D2402FDE43EFC9000C88000
:102CE000E0FB9000C8B174C8F0A37470F07F0102DB
:102CF0002743579000C478E0FFE4FD12270C7212BE
:102D0000278242EF70067F0F122653087F010227A9
:102D1000A09E1222787D2404FFE43EFE1226F14D8F
:102D20009000C870EFF0FB1222789C7D061227738A
:102D3000561222789C9000C8701220399C1222787A
:102D40009C1222786CA3A3122039DE12278242EF54
:102D5000600301364F7F0F022653081222787D8EC2
:102D600083759300240E12227839E09000C884F015
:102D7000E4FD7F021224A36312227A617CC87D8560
:102D80001226E4359000C884E064019000C8707099
:102D90002074091222787C12227AED12227839E00E
:102DA0009000C871F07D017F01122744657D01808C
:102DB0002A740A1222787C12227AED12227839E0E3
:102DC0009000C871F0E4FDFF12274BC8E49000C4E6
:102DD00070F07D01FF12274465E4FD7F0112254B51
:102DE0000C7EC87F7012229DE780000225FF011231
:102DF00022787D12227A52022479801222793BFDB8
:102E000012227874A3A3A3E06407701312227886B9
:102E1000E582240412227839A3E0FD0226BFAF1216
:102E200022793BFD12227874A3A3A3E0640560031A
:102E300001364F12227886E582240412227839A3C3
:102E4000E0FD0226C0C91222784912227A10AA0691
:102E5000F97B01022443D712227849A3A3A31222AB
:102E6000784DA3E0FDE4FF0227979C12227849A346
:102E7000A3E0FF7AC87B707D011225B71412227A75
:102E80008A70041225FF0112227849A3A3A31222FB
:102E9000784DA3E0700C9000C479E0FFE4FD1227A8
:102EA0000C727EC87F711227607D9000C871E0208F
:102EB000E40301364F12227849A3A3E0FF0226AFB4
:102EC000221222784912227A10FF9000C870EEF088
:102ED000A3EFF012227851A3E06401701D9000C8A6
:102EE000701222784DA3A3E0FF9000C471E06F70D0
:102EF0000301364FEFF00226D7289000C870122247
:102F0000784DA3E06402600301364F9000C872124E
:102F1000227A607CC87D721227438D9000C872E0CF
:102F20006401701B1227AA2BEF640C70129000C86A
:102F3000701222784DA3A3E0FF7D011225669290C6
:102F400000C87012227870E0FF759300A3A3E0FD23
:102F50000226C29F1222787DFF12227851A3A3E09D
:102F6000F9122278FEA3A3A3E0FFA3E09000C871AA
:102F7000CFF0A3EFF0AF019000C871E0FAA3E0FB3F
:102F8000F5828A8312227AFF7C001222791612229D
:102F90007A08022659661222787DFF122278511291
:102FA0002279CF12227AF5FAA3EDF0FB12227903EF
:102FB000A3A3E0FF8B821222790B12227A0702264A
:102FC00059E21222787DFF12227851122279CF1213
:102FD000227AF5A3EDF08F828E831222788AA3E005
:102FE000FD02267B131222787D2402FFE43E12228A
:102FF000798912227851A3E06402701F9000C87092
:103000001222784DE0FD12227A61ED6F600D900082
:10301000C46EE070067F041224A36312227B89121F
:10302000227851A3E06402703812227903E0FF7C19
:10303000C87D721226A4FD9000C872E0FF1226F629
:103040003C7EC87F73122738FB9000C873E030E3E2
:103050000C1227A952EF6401700301364FE4FF8080
:103060002D9000C8701222784DA3E0640160030126
:10307000364F1227A93DEF700301364F1227A95290
:10308000EF600301364F7F01122799A47F010226CA
:10309000FE671222787DFF12227851122279CF1218
:1030A000227AF5A3ED12227902A3A3E0FFEC541ECD
:1030B000FCED5402FD022725241222787D2402FF14
:1030C000E43E1222798912227851E0FF9000C45B1D
:1030D000E0B507151227AA2BEF640D700C9000C8FD
:1030E000701222784D122039BA12227B891222786E
:1030F00051A3A3E0700A12227903E0FFE4FD800CE3
:103100009000C8701222784DE0FF7D010226C3B9FD
:103110001222787D8E83759300240412227839124E
:10312000227B8212243F3412227AE5600301364F5B
:1031300012227849A3A3E0FF7CC87D711226A4FD6A
:1031400012227A331226F63C12227849A3A3E0FF1A
:10315000122039D17B017D02122338369000C46ED3
:10316000E0600301364F12227849A3A3E0FD7F04FB
:103170000224A3631222787D2402FFE43E12227906
:103180008A9000C8701222787012227AFD7B011298
:1031900026637B9000C8701222787012227AFD128A
:1031A00026C4179000C8701222784DE0FF9000C42A
:1031B0005BE0B507151227AA2BEF640D700C900089
:1031C000C8701222784D122039BA12278C40EF7045
:1031D0000301364F7D027F010224C22B1222787D2B
:1031E0002402FFE43E9000C874F0A3EFF0A374043F
:1031F000F09000C874E0FEA3E0FF12227851122282
:103200007B82A37403F0E49000C873F09000C8724E
:1032100012227902A3A3E060169000C8737401F033
:1032200012278C40EF60087D027F011224C22B9090
:1032300000C8741222784DA3E060079000C8727431
:1032400001F09000C876E0FF7E007B017AC87970BB
:1032500002245BDD9000C8747406122278481222A2
:103260007A108E83759300240412227839E0FEA32D
:10327000E0FF9000C874E0FD7C00EF2D1220392A99
:10328000700301364F9000C872E0FEA3E0FF1222E7
:1032900078517420F01222793BFD12227874A3A396
:1032A000E0FB12227891A3A3A312227870EBF0EF37
:1032B0002401FFE41222786A122279CFFD1220390C
:1032C000AF9000C874E01222785912227A078A83DC
:1032D00075930024061222783912227911E582248E
:1032E00004122278391220394B1227A4EF9000C81B
:1032F000720135D81222793BFD122278741222789D
:103300008D12227A07F5821222790B12227A070295
:103310002653869000C87674051222787CFF12220C
:103320007851E0FCA3E08CF012000E9033D2301004
:10333000357D301135923012350C30133522301472
:1033400035383015354E3016336C301733BC3018E5
:1033500033E830193431301A3447301B34E0301C34
:1033600034F6301D35C5301E0000364F9000C8774A
:1033700074081222790212227A108E837593002427
:103380000612227839122037B6700301364F122206
:103390007A2412227833E41220368812227B932476
:1033A000081222783912227911E582240612227835
:1033B000391220394B122039C80135D81220384D26
:1033C000700301364F1222782474011220377E01D7
:1033D00035D8122037ED700301364F12227824744D
:1033E000021220371E0135D8740D122278441222A1
:1033F0007A108E83759300240B12227839122037AD
:10340000B6700301364F12227A24122278337403E5
:103410001220368812227B93240D12227839122230
:103420007911E582240B1222783912203964013592
:10343000D812203875700301364F12227824740494
:10344000122038150135D8740512227844A3A3A39D
:103450001222784D12227A10FF9000C876E0FD7C8F
:1034600000EF2DFFEC3EFEA3E02F1220392A70035F
:1034700001364F12227A24122278337405F0122278
:10348000793BFD12227874A3A3E0FE12227891A367
:10349000A3A312227870EEF0EF122278591222794B
:1034A000CFFD9000C877E0FB120012109000C876A4
:1034B000E02401FFE433FEA3E07C002FFFEC3E128A
:1034C00022785E12227A078A8375930024051222DD
:1034D000783912227911A3A3A3122039640135D8B7
:1034E0001220384D700301364F12227824740612D0
:1034F00020377E0135D812203756700301364F121F
:103500002278247409122036500135D812203756FB
:10351000700301364F12227824740A1220365001AB
:1035200035D8122038D5700301364F122278247412
:103530000B1220389D0135D81220387570030136E2
:103540004F12227824740C122038150135D89000BF
:10355000C876E0240412227980122565BA9000C84A
:103560007212227922700301364F12227824740DD0
:10357000F07B04122038FD122039C8805B122037FE
:10358000ED700301364F1222782474071220371E83
:1035900080469000C876E0240312227980122565C7
:1035A000BA9000C87212227922700301364F12229B
:1035B00078247408F07B03122038FD122516B09091
:1035C00000C8728013122038D5700301364F1222C2
:1035D0007824740E1220389DE0FEA3E0FF022658E6
:1035E0006D1222787DFF12227851A3A3122278BC9B
:1035F000FD12227903A3A3A3E0540F4D9000F1C064
:10360000F09000F1CFE070471222789C122279717D
:103610007D0F02264E1012227849E0FEA3E0FFEE55
:1036200014702CEF24F26002802512227849A3A3A3
:1036300012000DD9E92403F9E43AFA12000AB16440
:10364000027D0270047F018002E4FF12274465229C
:10365000F0EF2401FFE433CF2DCF3CFE9000C8688B
:10366000E0FCA3E02402FDE43CFC7B02120012100B
:103670009000C870E0FEA3E0FFA3E0FCA3E0FD1211
:103680002516B09000C87222F09000C868E0FCA334
:10369000E0FDF5828C83759300A3A3E0FE8D828C00
:1036A00083759300A3A3A3E0FCA3E0F5828C83754C
:1036B0009300EEF0EF2401FFE433FE9000C872E0C7
:1036C000FCA3E02FFFEC3EFE9000C868E0FCA3E006
:1036D000F5828C83759300A3A3A3E0FCA3E0FD9087
:1036E00000C877E0FB120012109000C876E02401B9
:1036F000FFE433FEA3E07C002FFFEC3EFE9000C809
:1037000072E0FCA3E02FFFEC3EFE9000C868E0FCF6
:10371000A3E0F5828C83759300A3A3A3E022F0EFCE
:103720002401FFE433CF2DCF3CFE9000C868E0FCBD
:10373000A3E02402FDE43CFC7B0312001210900085
:10374000C870E0FEA3E0FFA3E0FCA3E0FD12251695
:10375000B09000C872229000C876E02402FFE433E3
:10376000CF2401CF3400FE9000C870F0A3EFF01218
:103770002565BA9000C872EEF0A3EFF04E22F0EF8C
:103780002401FFE433CF2DCF3CFE9000C868E0FC5D
:10379000A3E02402FDE43CFC7B0812001210900020
:1037A000C870E0FEA3E0FFA3E0FCA3E0FD12251635
:1037B000B09000C87222E0FEA3E0FF9000C876E05F
:1037C000FD7C00EF2DFFEC3EFEA3E02FFFEC3ECF93
:1037D0002401CF3400FE9000C870F0A3EFF0122552
:1037E00065BA9000C872EEF0A3EFF04E229000C8C8
:1037F00076E02403FFE433CF2401CF3400FE9000B1
:10380000C870F0A3EFF0122565BA9000C872EEF010
:10381000A3EFF04E22F0EF2401FFE433CF2DCF3C95
:10382000FE9000C868E0FCA3E02402FDE43CFC7BC1
:1038300006120012109000C870E0FEA3E0FFA3E0A3
:10384000FCA3E0FD122516B09000C872229000C8BB
:1038500076E02408FFE433CF2401CF3400FE90004B
:10386000C870F0A3EFF0122565BA9000C872EEF0B0
:10387000A3EFF04E229000C876E02406FFE433CF99
:103880002401CF3400FE9000C870F0A3EFF01225A1
:1038900065BA9000C872EEF0A3EFF04E22F0EF246C
:1038A00001FFE433CF2DCF3CFE9000C868E0FCA3BD
:1038B000E02402FDE43CFC7B02120012109000C8E0
:1038C00070E0FEA3E0FFA3E0FCA3E0FD122516B02C
:1038D0009000C872229000C876E02402FFE433CF43
:1038E0002401CF3400FE9000C870F0A3EFF0122541
:1038F00065BA9000C872EEF0A3EFF04E22EF2401FB
:10390000FFE433CF2DCF3CFE9000C868E0FCA3E07D
:103910002402FDE43CFC120012109000C870E0FE8E
:10392000A3E0FFA3E0FCA3E0FD22FFEC3ECF2401D7
:10393000CF3400FE9000C870F0A3EFF0122565BAF6
:103940009000C872EEF0A3EFF04E22E0FAA3E0FB85
:103950001200112F9000C870E0FEA3E0FFA3E0FC6E
:10396000A3E0FD22E0FAA3E0FB1200112F9000C8B3
:1039700070E0FEA3E0FFA3E0FCA3E0FD122516B07B
:103980009000C87222E4FDFF12274BC8E49000C4E7
:1039900070F022E0FFE4FD12270C7222E0FB7D05AF
:1039A0001227735622F07EC87F7212229DE7229062
:1039B00000C874E0FB1200121022A3E0FF12279D42
:1039C000D2E4FD1225669222122516B09000C8722C
:1039D000227CC87D6A122751D67EC87F6A22E0FB0E
:1039E0007D0712277356221226F14D9000C899EFD9
:1039F000F0221226A168EF4E227D0612277356226E
:103A00009000C654EEF0A3EFF07EC67F577B20E413
:103A1000FD1200004F1222210C12221FD3E01200CF
:103A20000E683A86013B0E023BBE033C01043C4457
:103A3000053C8B063D55073E5708407B0941E30A8C
:103A400045470B3E570C45EC0D46A20E46E90F4785
:103A50000510475211478A1247EF13480A14486568
:103A6000154880164B40174B65184C34194CCE1A2C
:103A70004D0C1B3E571C407B1D4D531E4D721F4D60
:103A80008A4000004DBA12221FA570501227939C45
:103A90001222200F7003014DBA1222210C12221F94
:103AA000D31222228012221FE01222228A12222006
:103AB000421222226CEC122220AB12222155122239
:103AC00021A01222216A1222229112222192122274
:103AD00022919000C65704F0A3EF801312221FCB4F
:103AE000122220087003014DBA7401122221D8124B
:103AF00022210B12221FD3A3A3E0FD122220B9CD55
:103B0000F0A3ED12221FA49000C65B0146E512222D
:103B10001FCB122220087003014DBA740212222119
:103B2000D8F09000C6541222201C240612221FB086
:103B3000FD122220B9CDF0ED12222041E582240AA7
:103B400012221FB09000C65B12204DCE1222206CB4
:103B5000240A12221FB06003014DBA122220F01273
:103B6000221FB5FEA3E0FF4E60041226586D1222FC
:103B70002363FFAEF012204DEB122220F51222211A
:103B800055ED122220F512221FB5FEA3E0FF4E6074
:103B9000081222236312204DF61222236D122221D5
:103BA0009312221FB57003014DBAEE12221FE012CC
:103BB000221FB51222207AAD82FC022657F0122273
:103BC0001FCB122220087003014DBA122220D212FC
:103BD000221FB51222202B600A9000C67712221FE6
:103BE000CFE4F012221FCBA3A3E07008122221A081
:103BF0001226E8C8740512221FBC122220B8014602
:103C0000E512221FCB122220087003014DBA1222A6
:103C100020D212221FB51222202B600A9000C677F4
:103C200012221FCFE4F012221FCBA3A3E0700812D0
:103C30002221A01226E8C8740312221FBC122220DF
:103C4000B80146E512221FCB122220087003014D55
:103C5000BA122220D212221FB51222202B600A9003
:103C600000C67712221FCFE4F012221FCBA3A3E0DD
:103C70007008122221A01226E8C89000C6577404CA
:103C800012221FC0122220B80146E512221FCB12B9
:103C90002220087003014DBA9000EFCAE0FFA3E0B4
:103CA0009000C69BCFF0A3EFF0E4A3F012222334E0
:103CB0009000C69DE0C39B4003013D3C9000C69B25
:103CC000E0FEA3E0FF12221FD3A3E0122222FF2472
:103CD00077F582E434C61222228A12222042E0FFC3
:103CE000EC25E025E02478F582E434C61222212177
:103CF0009000C69B1222201C240812221FB0122200
:103D000022FF2479F582E434C61222228A1222206C
:103D100042E582240A12221FB0FFEC25E025E024B0
:103D20007AF582E434C6122221219000C69B122229
:103D300021C49000C69DE004F0013CAC12221FECAF
:103D4000A3E0FD9000C6A174C6F0A37477F0E4A3CD
:103D5000F00224BE9212221FCB122220087003010F
:103D60004DBA1222210C12221FD3122221601222DC
:103D70001FB56D6003014DBA741A1222203BA312C5
:103D80002220B712222042E582242D12221FB09059
:103D900000C65A12204DCE9000C6541222201C2478
:103DA0002D12221FB06003014DBA122220431222AD
:103DB000226B9000C656E0FD122221B4122221553A
:103DC000ED122221A812222291ED122220E41222C9
:103DD0001FB5FEA3E0FF4E60041226586D9000C68A
:103DE00056E0122221B412221FB5FEA3E07802C3CE
:103DF00033CE33CED8F9FF12204DEB122220E4123D
:103E0000222155ED122220E412221FB5FEA3E04E1E
:103E10007003014DBAED122220E412221FB5FEA359
:103E2000E0FFED122221B4F583759300A3E025E0B5
:103E300025E0FB9000C655E02405FD9000C654E047
:103E40003400FC12001210122221A0122220E4F5EC
:103E5000837593000141B47EC67F777B13E4FD1226
:103E600000004F12221FCB122220087003014DBA0E
:103E7000E0FF1222212AF5837593007401F0A374E8
:103E800003F01222208C12222137E0640C70187586
:103E90009300A3A3A3E0FD122753F19000C68A125A
:103EA0002220347018800012221FCBA3A3A3E0FFAE
:103EB000122757219000C68AEEF0A3EFF09000C6BB
:103EC0008AE07002A3E070611222208C1222213657
:103ED000E06408701212221FF9A3E09000C6A2123B
:103EE00022230B0225D53A1222208C12222136E001
:103EF000641C701212221FF9A3E09000C6A21222C5
:103F0000230B0225C8221222208C12222136E064C3
:103F10000C6003014DBA12221FF9A3E0FD9000C608
:103F2000A21222230C0225C8D49000C6777401F097
:103F3000122222BFA3E0FF12221FD3A3A3E090000E
:103F4000C67D12222042A3A3A3E0FFA3E09000C6F7
:103F50007ECFF0A3EFF09000C68A1222201E240527
:103F600012221FB09000C689F09000C6837401121F
:103F7000222042E582240812221FB09000C684F05D
:103F80009000C68A12222072240912221FB0FF90CC
:103F900000C685F07E007006A37404F08022EF64F2
:103FA000024E70099000C6867406F080139000C619
:103FB0008A12222070240B12221FB09000C686F0B5
:103FC0009000C686E0FF7E00122565BA9000C68785
:103FD000122220347003014DBA9000C687E0FEA380
:103FE000E0FF9000C686E012204DF69000C68A12CF
:103FF000222187240912221FB0FFED240BFDE43C8F
:10400000FC9000C687E0FAA3E0FB1224BC28122231
:10401000208C12222136E06408701312221FF9123C
:104020002222DF9000C6A2F01225D53A8046122245
:10403000208C12222136E0641C70289000C68A125F
:10404000222070240512221FB09000C689F08D82B4
:1040500012221FF7122222DF9000C6A2F01225C8FA
:1040600022801112221FEC122222DF9000C6A2F041
:104070001225C8D49000C687014C2C12221FCB12E7
:104080002220087003014DBA12221FCBA3A3E0FF28
:104090009000C656E01222216A12221FB56F6003FB
:1040A000014DBA9000C65774061222219F9000C697
:1040B00058F0122220E412221FB5FCA3E0FD1222C8
:1040C00021A712221FB575F004A4FFED2FFFEC35D8
:1040D000F09000C677F0FCA3EFF0FD7EC67F597B21
:1040E00004120012109000C6541222201C2409123F
:1040F000221FB060079000C65D7401F012222043B9
:10410000E582241512221FB060079000C66074017A
:10411000F09000C6541222201C240F12221FB060FF
:104120001112222043E582241112221FB09000C6F2
:1041300064F01222208C1222218B241112221FB033
:10414000122220C3241212221FB01222206B241329
:1041500012221FB0FAA3E0FB74C61222222A746650
:10416000F01224B9BA12204DE21222206C24161249
:10417000221FB06003014DBA122221A0122221A8F1
:1041800012221FB504F0122221A712221FB5FD1220
:104190002221A0122221B412221FB5FAA3E06D70D1
:1041A00001EA601E9000C677E475F00412000B0966
:1041B0009000C677E0FCA3E012222137E0FD022642
:1041C000B6C0122220DF12221FB5FEA3E0FF4E7000
:1041D00003014DBA1226586D122220DF12222291BD
:1041E000A3F02212221FCB122220087003014DBA25
:1041F00012221FCB12222027701A12221FDB12223A
:104200001FB51222208BF5821222200112222231A8
:10421000741280259000C67712221FCFE0640170CF
:104220001E12221FDB12221FB51222208BF58212D2
:10423000222001122222317413F0E4FB0143CC123C
:1042400022208C1222218B241112221FB0640160C3
:1042500003014386122220C4241312221FB0FFC080
:1042600007122220C4241412221FB01222206B2411
:104270001512221FB0122222227479F0D0071224C4
:10428000B9BA12222018240912221FB06003014378
:104290002712222043E582240B12221FB012222271
:1042A0000A606612222018240C12221FB012222348
:1042B00074605612222043E582240D12221FB01290
:1042C00022237E604412222018240E12221FB012D4
:1042D000222388603412222043E582240F12221FF9
:1042E000B012222392602212222018241012221FC0
:1042F000B01222231E501212222043E582241112F2
:10430000221FB012222329507D12221FDB12221FEE
:10431000B51222208BF58212222001122222317442
:1043200029F07B070143CC12222018240912221FF6
:10433000B06402705112222043E582240B12221F26
:10434000B01222220A602212222018240C12221FEC
:10435000B012222239601212222043E582240E126A
:10436000221FB01222239C701D12221FDB12221F5B
:10437000B51222208BF582122220011222223174E2
:1043800029F07B0780469000C6541222201C240B83
:1043900012221FB0640170389000C65B0412222004
:1043A00042E582240C12221FB0FEA3E064024E609C
:1043B0001F12221FDB12221FB51222208BF5821240
:1043C000222001122222317429F07B040227934E0D
:1043D00012221FDB12221FB51222208BF58212221D
:1043E0002001A3E0FDE49000C6A1F0FB1227934E4C
:1043F0009000C677E0FEA3E0FF12221FD37401F005
:104400001222208C1222218B241712221FB0640149
:1044100070659000C65E0412222042E582240A12D2
:10442000221FB0640170509000C65612222129123A
:10443000221FB5FEA3E0FF64037003EE6401703732
:10444000EF64037003EE6401702D1222236D1222BB
:104450001FE012221FB51222207A122222748D82AE
:104460008C8312221FA9FD1222229912221FB0FA58
:10447000A3E0FB1226557E9000C657740712222136
:10448000D9F09000C6541222201C12221FAE9000B8
:10449000C65912222042A3A3A3E09000C65AF0906E
:1044A00000C65412222072241212221FB09000C69D
:1044B0006112222042E582241312221FB09000C60E
:1044C00062F07EC67F6412204DBB122220F01222C1
:1044D0001FB5FEA3E0FF4E604E122222A912222237
:1044E000B9C39F50201222208CF582122220011283
:1044F0002222E87001EA600D122221C09000C68AD3
:10450000E004F080D89000C68AE06F601A12221F83
:10451000CB1222217612222001122222C67CC67DD5
:104520005B7B1A120012101222210C12221FD3A33D
:104530001222227F122220D31222228A12221FA4A8
:10454000FFEC122221162212221FCB122220087009
:1045500003014DBAA374081222219F9000C658F09F
:104560001222208C8C8375930012221FAE9000C6FD
:1045700059F06003014DB2EF122220D312221FB571
:10458000122222D012221FD37401F0759300E5820B
:10459000240A12221FB064016003014DB2122223CB
:1045A0006D1222212A12221FB5FCA3E064037003BE
:1045B000EC64016003014DB29000C656E0FD12228A
:1045C0001FE012221FB5FFED122221CC12221FB5CF
:1045D000FD1222207B122222741222229912221F03
:1045E000B0FAA3E0FB1226557E014DB212221FCB7A
:1045F000122220087003014DBA1222210C12221F30
:10460000D31222216012221FB56D6003014DBA74CE
:10461000091222203BE582241612221FB09000C608
:104620007412222042E582240912221FB0600790F2
:1046300000C65A7401F09000C6541222201C2415A2
:1046400012221FB060079000C65D7401F012222094
:1046500043E582240F12221FB0600F1222206C2427
:104660001112221FB09000C661F01222208C12227B
:10467000218B241112221FB0122220C324121222D5
:104680001FB01222206B241312221FB0FAA3E0FBEA
:104690009000C6A274C6F0A37463F01224B9BA01E4
:1046A0004DB212221FCB122220087003014DBA1204
:1046B000221FCB122220279000C654700D12221FF9
:1046C000F0A3E0FD7B120227951312221FF0A3E056
:1046D000FDE4FB122795139000C657740C12221F9D
:1046E000C0122220B7F0014DB212221FCB1222209D
:1046F000087003014DBAA3740D12221FC0122220AC
:10470000B7F0014DB212221FCB1222200870030114
:104710004DBA12221FCB12222027700D12221FEC3D
:10472000A3E0FD7B120227970E9000C67712221F8E
:10473000CFE4F012221FECA3E0FDE4FB1227970E5A
:104740009000C657741012221FC0122220B7F00129
:104750004DB212221FCB122220087003014DBAA3C2
:10476000741112221FC0122220B712204DD812221B
:104770001FCBA3A3A3E06003014DBA122220CE12E7
:10478000221FB5122222D0014D4C12221FCB122221
:1047900020087003014DBA12221FCB12222027706D
:1047A0001D12221FDB12221FB51222213F122220CE
:1047B00063A3A3A3E0FB9000C6A17412802C900019
:1047C000C657740E12221FC0122220B712204DD8D5
:1047D00012221FDB12221FB51222213F1222206358
:1047E000A3A3A3E0FBE49000C6A1F002278BAC12C8
:1047F000221FCB122220087003014DBA740F12221F
:104800001F809000C65AF0014DB212221FCB122217
:1048100020087003014DBA12221FCB1222202770EC
:104820002012221FDB12221FB51222213F1222204A
:1048300063A3A3A3E0FB9000C6A17412F002278B30
:10484000CA12221FECA3E0FDE49000C6A1F0FB1207
:10485000278BCA9000C657741212221FC012222042
:10486000B7F0014DB212221FCB12222008700301B3
:104870004DBA741312221F809000C65AF0014DB237
:1048800012221FCB122220087003014DBA12221FE0
:10489000CB12222027701A12221FDB12221FB51200
:1048A00022208BF582122220011222224D741280C6
:1048B000239000C67712221FCFE0701E12221FDB4A
:1048C00012221FB51222208BF58212222001122201
:1048D000224D7414F0E4FB014A671222208C12224C
:1048E000218B241012221FB064016003014A21129F
:1048F0002220C4241212221FB0FFC007122220C49B
:10490000241312221FB01222206B241412221FB073
:10491000122222227479F0D0071224B9BA1222206E
:1049200018240912221FB060030149C21222204339
:10493000E582240B12221FB01222220A6066122284
:104940002018240C12221FB0122223746056122247
:104950002043E582240D12221FB01222237E6044E0
:1049600012222018240E12221FB012222388603433
:1049700012222043E582240F12221FB0122223921A
:10498000602212222018241012221FB01222231E8D
:10499000501212222043E582241112221FB012224B
:1049A0002329507D12221FDB12221FB51222208BD9
:1049B000F582122220011222224D7429F07B070178
:1049C0004A6712222018240912221FB06402705173
:1049D00012222043E582240B12221FB01222220A47
:1049E000602212222018240C12221FB01222223917
:1049F000601212222043E582240E12221FB01222DE
:104A0000239C701D12221FDB12221FB51222208B45
:104A1000F582122220011222224D7429F07B078098
:104A2000469000C6541222201C240A12221FB06491
:104A30000170389000C65A0412222042E582240BED
:104A400012221FB0FEA3E064024E601F12221FDB81
:104A500012221FB51222208BF5821222200112226F
:104A6000224D7429F07B0402279BF61222206C242D
:104A70001612221FB0640170069000C65D04F01289
:104A8000221FDB12221FB51222208BF58212222058
:104A900001A3E0FDE49000C6A1F0FB12279BF69075
:104AA00000C657740A1222210112221FD31222209B
:104AB000B712222042E582241112221FB09000C6B4
:104AC00060F09000C65412222072241212221FB0ED
:104AD0009000C661F07EC67F6312204DBB1222207B
:104AE000F012221FB5FEA3E0FF4E7003014DBA1273
:104AF0002222A9122222B9C39F50201222208CF513
:104B00008212222001122222E87001EA600D122294
:104B100021C09000C68AE004F080D89000C68AE0E8
:104B20006F7003014DBA12221FCB1222217612227E
:104B30002001122222C67CC67D5A7B1A0200121066
:104B400012221FCB122220087003014DBAA3740B4E
:104B5000122221D9F01222206C12221FAE9000C620
:104B600059F0014DB212221FCB122220087003010E
:104B70004DBA12221FCB12222027703C12221FDBBB
:104B800012221FB5FFC0071222210C12221FD3A32D
:104B9000A3E0FD12221FA5FAA3E0FB9000C654A3D8
:104BA000E02406FFE43E9000C84BF0A3EFF0A374AE
:104BB00012F0D00702252DEC1222210C12221FD355
:104BC0001222227F122222161222228AF09000C67E
:104BD0005774161222203F122220B7F01222206CA6
:104BE00012221FAEFEA3E0FF9000C65AEEF0A3EF24
:104BF000F0122565BA9000C65C12222034700301C1
:104C00004DBA7EC67F5C122223A62406FDE43AFC40
:104C10001222206312222345F583759300A3E0FB43
:104C20001200121012204DE29000C65CE0FEA3E0DC
:104C3000FF014CCA12221FCB122220087003014D23
:104C4000BAA374171222210112221FD3A3A3A3E037
:104C5000FCA3E0FD9000C659ECF0A3ED1222204227
:104C6000E582241512221FB09000C65DF0E490008A
:104C7000C65BF0A3F0D3ED9400EC940040399000B3
:104C8000C65412221FD11222226B122565BA90003F
:104C9000C65B122220347003014DBA7EC67F5B12C0
:104CA0002223A62405FDE43AFC12222063A3A3A339
:104CB000A3E0FB1200121012204DFE9000C65BE034
:104CC000FEA3E0FF4E7003014DBA0226586D12227A
:104CD0001FCB122220087003014DBA12221FCB12E3
:104CE000222027600A9000C67712221FCFE4F0121C
:104CF000221FECA3E0FD122797269000C6577414DC
:104D000012221FC0122220B7F0014DB212221FCB77
:104D1000122220087003014DBAA3741512221FC07D
:104D2000122220B7F012204DFE12221FCBA3A3A304
:104D3000E06003014DBA122220CE12221FB51222CA
:104D4000202B60769000C677E0FEA3E012221FD3EE
:104D5000E4F02212221FCB12222008605DA37418F7
:104D600012221F81FFA3E09000C65ACFF0A3EFF0FC
:104D7000804012221FCB12222008603EA374191219
:104D8000221FC0122220B7F0802812221FCB12222D
:104D900020086026E0FF122221CC12221FB5FD124E
:104DA000277F059000C657744012221FC012222090
:104DB000B8F07EC67F5712277E65227CC67D797B40
:104DC00011120012107EC67F5712277E6522F07ED8
:104DD000C67F5712277E6522F07EC67F5712277E38
:104DE00065227EC67F5712277E6522122565BA90FE
:104DF00000C656E0FD22FBE4FD1200004F227EC6F5
:104E00007F5712277E65229000DA50E06007640128
:104E10006003015AE612221ECC6003015AE21222FC
:104E20001E256003015AE29000D9AEE0FF9000DA3F
:104E300032E06F6003015A0412221E35D39400EE53
:104E40009400502D9000F040E0C394C8748094808A
:104E50004003015A009000E95AE07003015A0090A3
:104E600000E8EFE0FD64036008ED64096003015AA7
:104E700000D3EF9400EE9400500301595A12221D02
:104E8000D5E49000F040F09000F03AE06026900009
:104E9000F03DE030E00712221C7C01516812221D17
:104EA0001A700612221D6A800812221C2912221D65
:104EB000DF0151689000F035E05402600C9000F082
:104EC00050E0640360030151D212221B8C240412AF
:104ED000221B38E0640160030151CE9000DB50E0FA
:104EE000601E12221B6D240512221B38E0FD1222C7
:104EF0001B6D240812221B38E0C39D9000F03EF089
:104F00009000F052E0FF605712221B9B24051222F2
:104F10001B38E0FED39F500FE412221DD79000F003
:104F200052E0C39EF0803812221D1012221D95A35C
:104F3000A3C083C082E0FEA3E0FFC006C0079000CC
:104F4000F05212205AE7C3D0E09FFFD0E09E759345
:104F500000D082D083F0A3EFF0E49000F052F01282
:104F6000221F4E7003A3E0F460030151D29000F0C1
:104F700044E060499000F03BE0600612221D1A6098
:104F80001212221F5512221C7B12205AF812221DC7
:104F9000B2800E12221D1A700812221D6A12205AA7
:104FA000F812221F4E7003A3E0F470030151D29057
:104FB00000F044E014F012221DD50151D29000E916
:104FC0005AE0700301516E12221DB96008EF6409A6
:104FD000600301516E12221B8C240512221B38E043
:104FE000FD12221B6D240812221B38E0C39DFF9086
:104FF00000F03EE0FE6F700301516EE49000C4CEFD
:10500000F0C3EF9E9000F03CF070030151031222B8
:105010001F5512221E75C39480748094805069902D
:1050200000D495E0FEEF9E50089000F03DE030E0A7
:105030000C12221E7DE412221D09F0803C12221B5C
:105040007D240512221B38E0FF9000F03CE0FEEFCB
:10505000C39E4009EEFF12205B18E4801C12221B45
:10506000A912221D02EF12221E7512221C532405C2
:1050700012221B38E0FEC3EF9E9000F03CF090003F
:10508000F04B7401F00151159000F03CE0F404FF86
:105090009000C4CDF0E49000F03CF012221B9B2461
:1050A0000512221B38E0FEEFC39E50319000C4CDA4
:1050B00012205AE79000C4CEEFF09000D48B122259
:1050C0001C36A3A3E0FCA3E0C39410FDEC9400FC09
:1050D000C3ED9FFEEC12221D07CEF080389000F049
:1050E0003EE0FF12221B9B240512221B38E0FEC368
:1050F000EF9E9000F03EF0E412221D09F012221DF6
:10510000D7801212221D10F5828E8312221BB61236
:10511000221D02EFF012221D10FF9000F046122215
:105120001CB2240912221B38E0FF9000F056E4F074
:10513000A3EFF09000F033E07002A3E070030151A0
:10514000D29000F03DE054FE12221D19700612228A
:105150001D6A801412221C2912221DDF9000C4CE69
:10516000E07A002DFDEA3CFC12205B3E806490005A
:10517000F03DE054FEF09000D4CFE0FF6015122225
:105180001B9B240912221B38E0B507079000F03A58
:105190007440F09000E95AE060139000DB50E0604A
:1051A0000C12221D1A700612221C7C801712221B60
:1051B000A9C39410FFEE9400FE8D828C837593003A
:1051C00012221DDF12205B3E12221DB28004122724
:1051D000082C12221F4E7003A3E0F47003015AE65C
:1051E0009000D4CFE0FF601E12221B9B24091222E4
:1051F0001B38E0B507109000D4CFE09000D4FCF04D
:10520000E49000D4CFF0E49000F050F09000F04E25
:10521000E0A3F09000F03AE060429000F03DE02022
:10522000E00612221D1A70109000F03EE004F0908B
:1052300000F04E7401F0803D9000F033E0FEA3E0FA
:10524000FF9000D52AE0FD7C00120011589000F07C
:105250004EEFF09000F03EE02FF0801912221B7DFF
:10526000240512221B38E0FF9000F03EE02FF09062
:1052700000F04EEFF09000F03BE0700912221E1497
:105280009000F051F09000E970E070639000DADE79
:10529000E030E05B9000625CE0600A7D0A7F85128E
:1052A000273FAD803F9000E95AE060439000DADE8E
:1052B000E05403640370389000D4FFE0FF9000D402
:1052C000FCE06F702A1200048A9000C4CD12221CE8
:1052D000B2240412221B38E4F0A3743412221B2CD3
:1052E00012205B06C2AF9000DADE7404F0D2AF90F9
:1052F00000D49B12221B90240412221B38E0702041
:1053000012221B2DE060199000D49B12221B8312E5
:10531000221B36E412221B6C240712221B38E4F0F5
:105320009000F03AE0FF70119000D49BE0FDA3E004
:105330009000F048CDF0A3EDF09000D48BE0FCA3FA
:10534000E09000D49B12221F5C12221C3AE0FDA3C5
:10535000E09000D496CDF0A3EDF09000612AE060DB
:105360000A9000683BE070030154EE9000E95AE0B7
:1053700070030154EEEF60030154EE12221B7D24F2
:105380000912221B38E0FF547F60030154EE9001A4
:105390001E02E0FDA3E09000E95ECDF0A3EDF0A3D6
:1053A000EFF09000E950E0FEEF6E60030154EE90E4
:1053B00000F04AE0F920E7030154EE12221E3F906C
:1053C00000E94EE0FAA3E0FBC39DEA9C400DEB9D93
:1053D000FEEA9C12221EC5CEF0801B9000E94E1200
:1053E000221CA79000E95FE09FFF9000E95EE09E2D
:1053F00012221EC5EFF0C39000C4CDE0948040524D
:105400009000E94EE0FEA3E0FFEE30E71E9000E9D9
:105410005FE02401FD9000E95EE03400FCC374FF0E
:105420009FCF74FF9ECF2DCF3C80219000E94FE0AD
:105430002401FF9000E94EE03400FE12221E3FC31B
:1054400074FF9DCD74FF9CCD2FFFED3E12221EC533
:10545000EFF0E9547F9000F04AF09000C4CDE0FAFC
:10546000A3E0FBC39480EA940C40030154EE900047
:10547000E970E060799000E929E0FF7E009000E9A2
:1054800088E0FCA3E0FD12000AF7C39000DACCE04C
:105490009FFF9000DACBE09ECFC3941ECF9400FE16
:1054A0009000C4CFF0A3EFF02430FFE43EFED3EB36
:1054B0009FEA9E501CC3E09430FF9000C4CFE0945C
:1054C00000FEC39000C4CEE09F9000C4CDE09E508B
:1054D000179000F032E004F0E0D3940374809480DD
:1054E000400C12276ECD8000E49000F032F0900066
:1054F000625CE060379000E94C7401F09000DB538F
:10550000E0602912221BCE9000E97A12221E8690BA
:1055100000E97F12221E9412221B7D240912221BF5
:1055200038E0FF9000E97CE4F0A3EFF09000E95A46
:10553000E070030157579000DB53E06059E4F0C27C
:10554000AF9000DA47E0FFA3E09000E99D12221B34
:10555000F99000E99F12221E869000E9A4CFF0A3E3
:10556000EFF09000DA52E0FF9000E9A3F0D2AF1222
:10557000221B9B240912221B38E0FD9000E9A1E4C4
:10558000F0A3EDF09000E994E0FEEFB50608E4FD2D
:105590007F8212273FAD9000E970E07003015757FA
:1055A0009000DA4FE070030157579000D9B5E070D2
:1055B00003015757E412221EC5F012221F2B900040
:1055C000D9B012205B3012221D2612000D9C9000D3
:1055D000D9A8E0FEA3E0FFE4FCFD12221D22120088
:1055E0000D9CC000C001C002C0039000DACB1220A5
:1055F0005B30D003D002D001D00012221D22120055
:105600000D74C3EF9400FFEE9419FEED9400FDECD1
:105610009400FC9000C4CF12000DB59000D9B8E002
:10562000FEA3E0FF7DE27C0412000F9D9000C4D336
:1056300012000DB512221DEE9000D9B6E0FEA3E0D7
:10564000FFE4FCFD12000B759000C4D312221D2A4A
:1056500012221DEAD312000D0540169000C4CE742C
:1056600001F0A312000D74AB07AA069000C4D3800A
:10567000269000C4CF12221DEAC312000D05502946
:105680009000C4CE7402F09000C4D312000D74AB2D
:1056900007AA069000C4CF12000D74C3EF9BFFEE63
:1056A0009A9000C4D7F0A3EFF09000DB1FE024D461
:1056B000600C24FC701F12221D507B5380061222A6
:1056C0001D507B5B7A00120005C89000C4D7EEF035
:1056D000A3EFF08008E49000C4D7F0A3F09000C4DA
:1056E000D712221CA7947FEE94004003E4802E90F2
:1056F00000C4CEE064017011D3EF947FEE940050AB
:10570000219000C4D7A3E080149000C4D7E0FEA38A
:10571000E0FFD39480EE94005008EFF4049000C4AE
:10572000CDF01200048A9000C4D9EEF0FCA3EFF093
:10573000FD9000C4D912221B90240412221B38E4CD
:10574000F0A37436F09000C4CDE0FB12221B2DEBC9
:10575000F07F08120004519000DA37E06403600320
:105760000158399000F03CE060030158399000F096
:105770003AE0600301583912221C42240912221B0C
:105780003812221EF4CE12221C51240C12221B3875
:1057900012221B90240412221B38E0700301583996
:1057A00012221B6D240912221B38E0F99000F056DA
:1057B000A3E069700301583912221D10FFE9C39458
:1057C00001FDE494009000F05612221B6924091296
:1057D000221B38ED12221B8B240C12221B381222A2
:1057E0001C46240512221B38E0FB12221C532408FD
:1057F00012221B38E0C39BFD12221B6D24081222CB
:105800001B38E0FFC3ED9FFF9000F03CF09000D408
:1058100095E0FEEFD39E40169000F03CE0D39480DC
:10582000748094804004E4F0800412221E7D900075
:10583000F0587406F0A37440F012221E76605F12D6
:10584000221B9B240512221B38E0C39F401D1220FF
:105850005B189000D48BE0FFA3E09000F046CFF0FF
:10586000A3EFF0E49000F03CF0802D12221E76129F
:10587000221C42240512221B38E0FEC3EF9E90003A
:10588000F03CF08D8212221BB412221D02EFF09028
:1058900000F046ECF0A3EDF012221F55F02290002C
:1058A000F04BE0601F12221DB29000F04BF0900010
:1058B000E970E07003015AE69000F056E475F001DB
:1058C00002000B099000DA37E06409701C12000432
:1058D0008A9000C4CD12221B11740212221B6C2468
:1058E0000712221B3812205B0612221D10F5828E31
:1058F0008312221BB6FFC39000D4A7E09FFF900045
:10590000D4A6E09EFEF0A3EFF012205B4C12221B07
:1059100077240512221B3812221C07601A9000D52A
:1059200006E012221BC6400F12221D82CEC313CEE8
:1059300013D8F912221C5D12221B8C240412221B84
:1059400038E412221B6C240C12221B38E0FFA3E067
:105950009000D48BCF12221DAE229000DA37E0FFE8
:105960007E0064097002806B9000E8EFE0FD640344
:105970006005ED64097065EF64074E9000C4CB705C
:10598000057450F080037406F09000E95AE060342A
:105990009000C4CBE0FF9000F040E0D39F40259002
:1059A00000F03AE0441012221C7B12205B551222B8
:1059B0001DAEEFF47002EEF4602E12221E7DA3E005
:1059C00004F0802490011D9BE0540F64037002805A
:1059D0000274FF9000C4C9F0A3F0800C12221E03D1
:1059E00012205B55F0A3EFF09000C4C9E0F47003FF
:1059F000A3E0F47003015AE69000F040E004F022C6
:105A00000225EC59E49000F03BF09000D49DE0FFBB
:105A10009000D4F5E0D39F5003015AE69000DA37A6
:105A2000E0640970261200048A9000C4CB12221B85
:105A300011740312221B6C240712221B38E4F0900D
:105A400000C4CB12221EEC1200045112221D1012AF
:105A5000221D94A3A312221F409000D4A7E09DF022
:105A60009000D4A6E09C12221B6C240512221B3845
:105A700012221F204003EE9FF012221E3512205BDF
:105A80004C12221B77240512221B3812221C07609D
:105A90001A9000D506E012221BC6400F12221D826A
:105AA000CEC313CE13D8F912221C5D12221B8C24F4
:105AB0000412221B38E412221B2CE412221B6C2439
:105AC0000712221B38E412221B6C240C12221B38F2
:105AD00012221B43240912221B3812221EF4A3CEC9
